{
  "_format": "hh-sol-artifact-1",
  "contractName": "Blackjack",
  "sourceName": "contracts/Blackjack.sol",
  "abi": [
    {
      "inputs": [
        {
          "internalType": "address",
          "name": "owner",
          "type": "address"
        }
      ],
      "name": "OwnableInvalidOwner",
      "type": "error"
    },
    {
      "inputs": [
        {
          "internalType": "address",
          "name": "account",
          "type": "address"
        }
      ],
      "name": "OwnableUnauthorizedAccount",
      "type": "error"
    },
    {
      "anonymous": false,
      "inputs": [],
      "name": "DealerCardsUpdated",
      "type": "event"
    },
    {
      "anonymous": false,
      "inputs": [
        {
          "indexed": false,
          "internalType": "bool",
          "name": "started",
          "type": "bool"
        }
      ],
      "name": "GameStateChanged",
      "type": "event"
    },
    {
      "anonymous": false,
      "inputs": [
        {
          "indexed": true,
          "internalType": "address",
          "name": "previousOwner",
          "type": "address"
        },
        {
          "indexed": true,
          "internalType": "address",
          "name": "newOwner",
          "type": "address"
        }
      ],
      "name": "OwnershipTransferred",
      "type": "event"
    },
    {
      "anonymous": false,
      "inputs": [],
      "name": "PlayerCardsUpdated",
      "type": "event"
    },
    {
      "inputs": [],
      "name": "bet",
      "outputs": [],
      "stateMutability": "payable",
      "type": "function"
    },
    {
      "inputs": [],
      "name": "currentGame",
      "outputs": [
        {
          "internalType": "uint256",
          "name": "",
          "type": "uint256"
        }
      ],
      "stateMutability": "view",
      "type": "function"
    },
    {
      "inputs": [],
      "name": "dealerCardsSum",
      "outputs": [
        {
          "internalType": "uint256",
          "name": "",
          "type": "uint256"
        }
      ],
      "stateMutability": "view",
      "type": "function"
    },
    {
      "inputs": [],
      "name": "drawCards",
      "outputs": [],
      "stateMutability": "nonpayable",
      "type": "function"
    },
    {
      "inputs": [],
      "name": "drawDealerCards",
      "outputs": [
        {
          "internalType": "uint256[]",
          "name": "",
          "type": "uint256[]"
        }
      ],
      "stateMutability": "nonpayable",
      "type": "function"
    },
    {
      "inputs": [],
      "name": "drawPlayerCard",
      "outputs": [],
      "stateMutability": "nonpayable",
      "type": "function"
    },
    {
      "inputs": [],
      "name": "gameStarted",
      "outputs": [
        {
          "internalType": "bool",
          "name": "",
          "type": "bool"
        }
      ],
      "stateMutability": "view",
      "type": "function"
    },
    {
      "inputs": [
        {
          "internalType": "uint256",
          "name": "",
          "type": "uint256"
        },
        {
          "internalType": "address",
          "name": "",
          "type": "address"
        }
      ],
      "name": "gamesBets",
      "outputs": [
        {
          "internalType": "uint256",
          "name": "",
          "type": "uint256"
        }
      ],
      "stateMutability": "view",
      "type": "function"
    },
    {
      "inputs": [],
      "name": "getBalance",
      "outputs": [
        {
          "internalType": "uint256",
          "name": "",
          "type": "uint256"
        }
      ],
      "stateMutability": "view",
      "type": "function"
    },
    {
      "inputs": [],
      "name": "getDealerCards",
      "outputs": [
        {
          "internalType": "uint256[]",
          "name": "",
          "type": "uint256[]"
        }
      ],
      "stateMutability": "view",
      "type": "function"
    },
    {
      "inputs": [],
      "name": "getPlayerCards",
      "outputs": [
        {
          "internalType": "uint256[]",
          "name": "",
          "type": "uint256[]"
        }
      ],
      "stateMutability": "view",
      "type": "function"
    },
    {
      "inputs": [],
      "name": "myBet",
      "outputs": [
        {
          "internalType": "uint256",
          "name": "",
          "type": "uint256"
        }
      ],
      "stateMutability": "view",
      "type": "function"
    },
    {
      "inputs": [],
      "name": "owner",
      "outputs": [
        {
          "internalType": "address",
          "name": "",
          "type": "address"
        }
      ],
      "stateMutability": "view",
      "type": "function"
    },
    {
      "inputs": [
        {
          "internalType": "address payable",
          "name": "_player",
          "type": "address"
        }
      ],
      "name": "payPlayer",
      "outputs": [],
      "stateMutability": "payable",
      "type": "function"
    },
    {
      "inputs": [],
      "name": "playerCardsSum",
      "outputs": [
        {
          "internalType": "uint256",
          "name": "",
          "type": "uint256"
        }
      ],
      "stateMutability": "view",
      "type": "function"
    },
    {
      "inputs": [],
      "name": "playerHit",
      "outputs": [],
      "stateMutability": "nonpayable",
      "type": "function"
    },
    {
      "inputs": [],
      "name": "playerStand",
      "outputs": [],
      "stateMutability": "nonpayable",
      "type": "function"
    },
    {
      "inputs": [
        {
          "internalType": "uint256",
          "name": "",
          "type": "uint256"
        }
      ],
      "name": "players",
      "outputs": [
        {
          "internalType": "address payable",
          "name": "",
          "type": "address"
        }
      ],
      "stateMutability": "view",
      "type": "function"
    },
    {
      "inputs": [],
      "name": "renounceOwnership",
      "outputs": [],
      "stateMutability": "nonpayable",
      "type": "function"
    },
    {
      "inputs": [],
      "name": "roundTime",
      "outputs": [
        {
          "internalType": "uint256",
          "name": "",
          "type": "uint256"
        }
      ],
      "stateMutability": "view",
      "type": "function"
    },
    {
      "inputs": [],
      "name": "startGame",
      "outputs": [],
      "stateMutability": "nonpayable",
      "type": "function"
    },
    {
      "inputs": [],
      "name": "stopBlackjackGame",
      "outputs": [],
      "stateMutability": "nonpayable",
      "type": "function"
    },
    {
      "inputs": [
        {
          "internalType": "address",
          "name": "newOwner",
          "type": "address"
        }
      ],
      "name": "transferOwnership",
      "outputs": [],
      "stateMutability": "nonpayable",
      "type": "function"
    },
    {
      "stateMutability": "payable",
      "type": "receive"
    }
  ],
  "bytecode": "0x608060405260006001556000600260006101000a81548160ff02191690831515021790555060006003556000600a60006101000a81548160ff021916908315150217905550601e600c556000600d60006101000a81548160ff0219169083151502179055503480156200007157600080fd5b5033600073ffffffffffffffffffffffffffffffffffffffff168173ffffffffffffffffffffffffffffffffffffffff1603620000e85760006040517f1e4fbdf7000000000000000000000000000000000000000000000000000000008152600401620000df919062000209565b60405180910390fd5b620000f9816200010060201b60201c565b5062000226565b60008060009054906101000a900473ffffffffffffffffffffffffffffffffffffffff169050816000806101000a81548173ffffffffffffffffffffffffffffffffffffffff021916908373ffffffffffffffffffffffffffffffffffffffff1602179055508173ffffffffffffffffffffffffffffffffffffffff168173ffffffffffffffffffffffffffffffffffffffff167f8be0079c531659141344cd1fd0a4f28419497f9722a3daafe3b4186f6b6457e060405160405180910390a35050565b600073ffffffffffffffffffffffffffffffffffffffff82169050919050565b6000620001f182620001c4565b9050919050565b6200020381620001e4565b82525050565b6000602082019050620002206000830184620001f8565b92915050565b61280580620002366000396000f3fe6080604052600436106101445760003560e01c8063974ee4d8116100b6578063ee5f8c8f1161006f578063ee5f8c8f146104ca578063f0d86e1c146104f5578063f2fde38b14610520578063f71d96cb14610549578063f921e98f14610586578063feb30813146105b157610294565b8063974ee4d814610406578063bb53b4d514610431578063c9f09d3814610448578063ce8e249c1461045f578063d65ab5f21461049c578063e6be0b87146104b357610294565b80635e123ce4116101085780635e123ce41461032c57806360b663bb14610357578063715018a614610382578063784f49ca146103995780638da5cb5b146103b05780638eb575be146103db57610294565b806311610c251461029957806312065fe0146102a357806312530633146102ce578063417c5385146102f95780635671e6991461031057610294565b3661029457655af3107a4000341015610192576040517f08c379a000000000000000000000000000000000000000000000000000000000815260040161018990611d2e565b60405180910390fd5b670de0b6b3a76400003460046000600354815260200190815260200160002060003373ffffffffffffffffffffffffffffffffffffffff1673ffffffffffffffffffffffffffffffffffffffff168152602001908152602001600020546101f99190611d87565b111561023a576040517f08c379a000000000000000000000000000000000000000000000000000000000815260040161023190611e07565b60405180910390fd5b600260009054906101000a900460ff161561028a576040517f08c379a000000000000000000000000000000000000000000000000000000000815260040161028190611e73565b60405180910390fd5b6102926105dc565b005b600080fd5b6102a16105dc565b005b3480156102af57600080fd5b506102b861084c565b6040516102c59190611ea2565b60405180910390f35b3480156102da57600080fd5b506102e3610854565b6040516102f09190611ea2565b60405180910390f35b34801561030557600080fd5b5061030e6108b4565b005b61032a60048036038101906103259190611f20565b6109d1565b005b34801561033857600080fd5b50610341610b4a565b60405161034e9190611f68565b60405180910390f35b34801561036357600080fd5b5061036c610b5d565b6040516103799190611ea2565b60405180910390f35b34801561038e57600080fd5b50610397610b63565b005b3480156103a557600080fd5b506103ae610b77565b005b3480156103bc57600080fd5b506103c5610d4b565b6040516103d29190611fa4565b60405180910390f35b3480156103e757600080fd5b506103f0610d74565b6040516103fd9190611ea2565b60405180910390f35b34801561041257600080fd5b5061041b610dce565b604051610428919061207d565b60405180910390f35b34801561043d57600080fd5b50610446610ebc565b005b34801561045457600080fd5b5061045d61118a565b005b34801561046b57600080fd5b50610486600480360381019061048191906120f7565b611217565b6040516104939190611ea2565b60405180910390f35b3480156104a857600080fd5b506104b161123c565b005b3480156104bf57600080fd5b506104c86112e9565b005b3480156104d657600080fd5b506104df611473565b6040516104ec9190611ea2565b60405180910390f35b34801561050157600080fd5b5061050a611479565b6040516105179190611ea2565b60405180910390f35b34801561052c57600080fd5b5061054760048036038101906105429190612137565b6114d9565b005b34801561055557600080fd5b50610570600480360381019061056b9190612164565b61155f565b60405161057d91906121a0565b60405180910390f35b34801561059257600080fd5b5061059b61159e565b6040516105a8919061207d565b60405180910390f35b3480156105bd57600080fd5b506105c661168b565b6040516105d3919061207d565b60405180910390f35b655af3107a4000341015610625576040517f08c379a000000000000000000000000000000000000000000000000000000000815260040161061c90611d2e565b60405180910390fd5b670de0b6b3a76400003460046000600354815260200190815260200160002060003373ffffffffffffffffffffffffffffffffffffffff1673ffffffffffffffffffffffffffffffffffffffff1681526020019081526020016000205461068c9190611d87565b11156106cd576040517f08c379a00000000000000000000000000000000000000000000000000000000081526004016106c490611e07565b60405180910390fd5b600260009054906101000a900460ff161561071d576040517f08c379a000000000000000000000000000000000000000000000000000000000815260040161071490611e73565b60405180910390fd5b600060046000600354815260200190815260200160002060003373ffffffffffffffffffffffffffffffffffffffff1673ffffffffffffffffffffffffffffffffffffffff168152602001908152602001600020549050600081036107e0576005339080600181540180825580915050600190039060005260206000200160009091909190916101000a81548173ffffffffffffffffffffffffffffffffffffffff021916908373ffffffffffffffffffffffffffffffffffffffff1602179055505b3460046000600354815260200190815260200160002060003373ffffffffffffffffffffffffffffffffffffffff1673ffffffffffffffffffffffffffffffffffffffff16815260200190815260200160002060008282546108429190611d87565b9250508190555050565b600047905090565b60006108af60068054806020026020016040519081016040528092919081815260200182805480156108a557602002820191906000526020600020905b815481526020019060010190808311610891575b50505050506116e3565b905090565b60116108be610854565b10156108ff576040517f08c379a00000000000000000000000000000000000000000000000000000000081526004016108f690612207565b60405180910390fd5b6109076117a3565b600067ffffffffffffffff81111561092257610921612227565b5b6040519080825280602002602001820160405280156109505781602001602082028036833780820191505090505b5060069080519060200190610966929190611bdd565b50600067ffffffffffffffff81111561098257610981612227565b5b6040519080825280602002602001820160405280156109b05781602001602082028036833780820191505090505b50600790805190602001906109c6929190611bdd565b506109cf6118c7565b565b6109d961199c565b600060046000600354815260200190815260200160002060008373ffffffffffffffffffffffffffffffffffffffff1673ffffffffffffffffffffffffffffffffffffffff1681526020019081526020016000205490506000600282610a3f9190612256565b90506015600860008573ffffffffffffffffffffffffffffffffffffffff1673ffffffffffffffffffffffffffffffffffffffff1681526020019081526020016000205403610a9857600382610a959190612256565b90505b60008373ffffffffffffffffffffffffffffffffffffffff1682604051610abe906122c9565b60006040518083038185875af1925050503d8060008114610afb576040519150601f19603f3d011682016040523d82523d6000602084013e610b00565b606091505b5050905080610b44576040517f08c379a0000000000000000000000000000000000000000000000000000000008152600401610b3b9061232a565b60405180910390fd5b50505050565b600260009054906101000a900460ff1681565b60035481565b610b6b61199c565b610b756000611a23565b565b6000600860003373ffffffffffffffffffffffffffffffffffffffff1673ffffffffffffffffffffffffffffffffffffffff1681526020019081526020016000205414610bf9576040517f08c379a0000000000000000000000000000000000000000000000000000000008152600401610bf090612396565b60405180910390fd5b60001515600960003373ffffffffffffffffffffffffffffffffffffffff1673ffffffffffffffffffffffffffffffffffffffff16815260200190815260200160002060009054906101000a900460ff16151514610c8c576040517f08c379a0000000000000000000000000000000000000000000000000000000008152600401610c8390612402565b60405180910390fd5b6015610c96611479565b10610cd6576040517f08c379a0000000000000000000000000000000000000000000000000000000008152600401610ccd90612494565b60405180910390fd5b6001600960003373ffffffffffffffffffffffffffffffffffffffff1673ffffffffffffffffffffffffffffffffffffffff16815260200190815260200160002060006101000a81548160ff0219169083151502179055506001600a60006101000a81548160ff021916908315150217905550565b60008060009054906101000a900473ffffffffffffffffffffffffffffffffffffffff16905090565b600060046000600354815260200190815260200160002060003373ffffffffffffffffffffffffffffffffffffffff1673ffffffffffffffffffffffffffffffffffffffff16815260200190815260200160002054905090565b6060600d60009054906101000a900460ff1615610e3d576006805480602002602001604051908101604052809291908181526020018280548015610e3157602002820191906000526020600020905b815481526020019060010190808311610e1d575b50505050509050610eb9565b60006006805480602002602001604051908101604052809291908181526020018280548015610e8b57602002820191906000526020600020905b815481526020019060010190808311610e77575b50505050509050600081600081518110610ea857610ea76124b4565b5b602002602001018181525050809150505b90565b610ec461199c565b600a60009054906101000a900460ff16610f13576040517f08c379a0000000000000000000000000000000000000000000000000000000008152600401610f0a9061252f565b60405180910390fd5b600c54600b5442610f24919061254f565b1015610f65576040517f08c379a0000000000000000000000000000000000000000000000000000000008152600401610f5c906125cf565b60405180910390fd5b6015610f6f611479565b10610faf576040517f08c379a0000000000000000000000000000000000000000000000000000000008152600401610fa690612494565b60405180910390fd5b6007610fb9611ae7565b90806001815401808255809150506001900390600052602060002001600090919091909150556000600a60006101000a81548160ff02191690831515021790555060005b60058054905081101561115b576000600582815481106110205761101f6124b4565b5b9060005260206000200160009054906101000a900473ffffffffffffffffffffffffffffffffffffffff169050600960008273ffffffffffffffffffffffffffffffffffffffff1673ffffffffffffffffffffffffffffffffffffffff16815260200190815260200160002060009054906101000a900460ff161580156110e657506000600860008373ffffffffffffffffffffffffffffffffffffffff1673ffffffffffffffffffffffffffffffffffffffff16815260200190815260200160002054145b156110f5576110f481611afa565b5b6000600960008373ffffffffffffffffffffffffffffffffffffffff1673ffffffffffffffffffffffffffffffffffffffff16815260200190815260200160002060006101000a81548160ff021916908315150217905550508080600101915050610ffd565b507f616db456658b24c0ba83b651ceb8a239dd081a8bfc7a753f8483dc2e486196ec60405160405180910390a1565b6000600860003373ffffffffffffffffffffffffffffffffffffffff1673ffffffffffffffffffffffffffffffffffffffff168152602001908152602001600020541461120c576040517f08c379a000000000000000000000000000000000000000000000000000000000815260040161120390612396565b60405180910390fd5b61121533611afa565b565b6004602052816000526040600020602052806000526040600020600091509150505481565b61124461199c565b600260009054906101000a900460ff1615611294576040517f08c379a000000000000000000000000000000000000000000000000000000000815260040161128b90611e73565b60405180910390fd5b6001600260006101000a81548160ff0219169083151502179055507f685dfcaf45373d55ef4715e46df4c5dd3397aba05c8d48788c1786893f03d68560016040516112df9190611f68565b60405180910390a1565b6112f161199c565b600060068054905014801561130b57506000600780549050145b61134a576040517f08c379a000000000000000000000000000000000000000000000000000000000815260040161134190612661565b60405180910390fd5b61135261123c565b600661135c611ae7565b9080600181540180825580915050600190039060005260206000200160009091909190915055600761138c611ae7565b908060018154018082558091505060019003906000526020600020016000909190919091505560066113bc611ae7565b908060018154018082558091505060019003906000526020600020016000909190919091505560076113ec611ae7565b908060018154018082558091505060019003906000526020600020016000909190919091505542600b819055507f616db456658b24c0ba83b651ceb8a239dd081a8bfc7a753f8483dc2e486196ec60405160405180910390a17fa974631a3ddcee04ef665e2362a115246ecaf91b8db33717402c072b3674a32f60405160405180910390a1565b600c5481565b60006114d460078054806020026020016040519081016040528092919081815260200182805480156114ca57602002820191906000526020600020905b8154815260200190600101908083116114b6575b50505050506116e3565b905090565b6114e161199c565b600073ffffffffffffffffffffffffffffffffffffffff168173ffffffffffffffffffffffffffffffffffffffff16036115535760006040517f1e4fbdf700000000000000000000000000000000000000000000000000000000815260040161154a9190611fa4565b60405180910390fd5b61155c81611a23565b50565b6005818154811061156f57600080fd5b906000526020600020016000915054906101000a900473ffffffffffffffffffffffffffffffffffffffff1681565b60606115a861199c565b5b60116115b3610854565b10156115ee5760066115c3611ae7565b90806001815401808255809150506001900390600052602060002001600090919091909150556115a9565b6001600d60006101000a81548160ff0219169083151502179055507fa974631a3ddcee04ef665e2362a115246ecaf91b8db33717402c072b3674a32f60405160405180910390a1600680548060200260200160405190810160405280929190818152602001828054801561168157602002820191906000526020600020905b81548152602001906001019080831161166d575b5050505050905090565b606060078054806020026020016040519081016040528092919081815260200182805480156116d957602002820191906000526020600020905b8154815260200190600101908083116116c5575b5050505050905090565b6000806000905060005b83518110156117335761171984828151811061170c5761170b6124b4565b5b6020026020010151611b48565b826117249190611d87565b915080806001019150506116ed565b5060005b8351811015611799576001848281518110611755576117546124b4565b5b602002602001015114801561177757506015600a836117749190611d87565b11155b1561178c57600a826117899190611d87565b91505b8080600101915050611737565b5080915050919050565b60005b6005805490508110156118c4576000600582815481106117c9576117c86124b4565b5b9060005260206000200160009054906101000a900473ffffffffffffffffffffffffffffffffffffffff1690506015600860008373ffffffffffffffffffffffffffffffffffffffff1673ffffffffffffffffffffffffffffffffffffffff16815260200190815260200160002054111561184457506118b7565b61184c610854565b600860008373ffffffffffffffffffffffffffffffffffffffff1673ffffffffffffffffffffffffffffffffffffffff168152602001908152602001600020541080156118a15750601561189e610854565b11155b156118ac57506118b7565b6118b5816109d1565b505b80806001019150506117a6565b50565b6118cf61199c565b6000600260006101000a81548160ff021916908315150217905550600360008154809291906118fd90612681565b9190505550600067ffffffffffffffff81111561191d5761191c612227565b5b60405190808252806020026020018201604052801561194b5781602001602082028036833780820191505090505b5060059080519060200190611961929190611c2a565b507f685dfcaf45373d55ef4715e46df4c5dd3397aba05c8d48788c1786893f03d68560006040516119929190611f68565b60405180910390a1565b6119a4611b65565b73ffffffffffffffffffffffffffffffffffffffff166119c2610d4b565b73ffffffffffffffffffffffffffffffffffffffff1614611a21576119e5611b65565b6040517f118cdaa7000000000000000000000000000000000000000000000000000000008152600401611a189190611fa4565b60405180910390fd5b565b60008060009054906101000a900473ffffffffffffffffffffffffffffffffffffffff169050816000806101000a81548173ffffffffffffffffffffffffffffffffffffffff021916908373ffffffffffffffffffffffffffffffffffffffff1602179055508173ffffffffffffffffffffffffffffffffffffffff168173ffffffffffffffffffffffffffffffffffffffff167f8be0079c531659141344cd1fd0a4f28419497f9722a3daafe3b4186f6b6457e060405160405180910390a35050565b6000611af56001600d611b6d565b905090565b611b02611479565b600860008373ffffffffffffffffffffffffffffffffffffffff1673ffffffffffffffffffffffffffffffffffffffff1681526020019081526020016000208190555050565b6000600a821115611b5c57600a9050611b60565b8190505b919050565b600033905090565b600080824233600154604051602001611b8893929190612732565b6040516020818303038152906040528051906020012060001c611bab919061279e565b90508381611bb99190611d87565b905060016000815480929190611bce90612681565b91905055508091505092915050565b828054828255906000526020600020908101928215611c19579160200282015b82811115611c18578251825591602001919060010190611bfd565b5b509050611c269190611cb4565b5090565b828054828255906000526020600020908101928215611ca3579160200282015b82811115611ca25782518260006101000a81548173ffffffffffffffffffffffffffffffffffffffff021916908373ffffffffffffffffffffffffffffffffffffffff16021790555091602001919060010190611c4a565b5b509050611cb09190611cb4565b5090565b5b80821115611ccd576000816000905550600101611cb5565b5090565b600082825260208201905092915050565b7f546865206d696e696d756d2062657420697320202e3030303120657468657200600082015250565b6000611d18601f83611cd1565b9150611d2382611ce2565b602082019050919050565b60006020820190508181036000830152611d4781611d0b565b9050919050565b6000819050919050565b7f4e487b7100000000000000000000000000000000000000000000000000000000600052601160045260246000fd5b6000611d9282611d4e565b9150611d9d83611d4e565b9250828201905080821115611db557611db4611d58565b5b92915050565b7f546865206d6178696d756d20656e747279206973203120657468657200000000600082015250565b6000611df1601c83611cd1565b9150611dfc82611dbb565b602082019050919050565b60006020820190508181036000830152611e2081611de4565b9050919050565b7f47616d6520697320737461727465640000000000000000000000000000000000600082015250565b6000611e5d600f83611cd1565b9150611e6882611e27565b602082019050919050565b60006020820190508181036000830152611e8c81611e50565b9050919050565b611e9c81611d4e565b82525050565b6000602082019050611eb76000830184611e93565b92915050565b600080fd5b600073ffffffffffffffffffffffffffffffffffffffff82169050919050565b6000611eed82611ec2565b9050919050565b611efd81611ee2565b8114611f0857600080fd5b50565b600081359050611f1a81611ef4565b92915050565b600060208284031215611f3657611f35611ebd565b5b6000611f4484828501611f0b565b91505092915050565b60008115159050919050565b611f6281611f4d565b82525050565b6000602082019050611f7d6000830184611f59565b92915050565b6000611f8e82611ec2565b9050919050565b611f9e81611f83565b82525050565b6000602082019050611fb96000830184611f95565b92915050565b600081519050919050565b600082825260208201905092915050565b6000819050602082019050919050565b611ff481611d4e565b82525050565b60006120068383611feb565b60208301905092915050565b6000602082019050919050565b600061202a82611fbf565b6120348185611fca565b935061203f83611fdb565b8060005b838110156120705781516120578882611ffa565b975061206283612012565b925050600181019050612043565b5085935050505092915050565b60006020820190508181036000830152612097818461201f565b905092915050565b6120a881611d4e565b81146120b357600080fd5b50565b6000813590506120c58161209f565b92915050565b6120d481611f83565b81146120df57600080fd5b50565b6000813590506120f1816120cb565b92915050565b6000806040838503121561210e5761210d611ebd565b5b600061211c858286016120b6565b925050602061212d858286016120e2565b9150509250929050565b60006020828403121561214d5761214c611ebd565b5b600061215b848285016120e2565b91505092915050565b60006020828403121561217a57612179611ebd565b5b6000612188848285016120b6565b91505092915050565b61219a81611ee2565b82525050565b60006020820190506121b56000830184612191565b92915050565b7f4465616c6572206973206e6f742066696e697368656420796574000000000000600082015250565b60006121f1601a83611cd1565b91506121fc826121bb565b602082019050919050565b60006020820190508181036000830152612220816121e4565b9050919050565b7f4e487b7100000000000000000000000000000000000000000000000000000000600052604160045260246000fd5b600061226182611d4e565b915061226c83611d4e565b925082820261227a81611d4e565b9150828204841483151761229157612290611d58565b5b5092915050565b600081905092915050565b50565b60006122b3600083612298565b91506122be826122a3565b600082019050919050565b60006122d4826122a6565b9150819050919050565b7f4661696c656420746f2073656e64204574686572000000000000000000000000600082015250565b6000612314601483611cd1565b915061231f826122de565b602082019050919050565b6000602082019050818103600083015261234381612307565b9050919050565b7f506c6179657220616c72656164792073746f6f64000000000000000000000000600082015250565b6000612380601483611cd1565b915061238b8261234a565b602082019050919050565b600060208201905081810360008301526123af81612373565b9050919050565b7f506c6179657220616c7265616479206869747465640000000000000000000000600082015250565b60006123ec601583611cd1565b91506123f7826123b6565b602082019050919050565b6000602082019050818103600083015261241b816123df565b9050919050565b7f54686520706c6179657227732063617264732073756d20697320657175616c2060008201527f6f722067726561746572207468616e2032310000000000000000000000000000602082015250565b600061247e603283611cd1565b915061248982612422565b604082019050919050565b600060208201905081810360008301526124ad81612471565b9050919050565b7f4e487b7100000000000000000000000000000000000000000000000000000000600052603260045260246000fd5b7f4e6f20706c6179657220766f7465642068697400000000000000000000000000600082015250565b6000612519601383611cd1565b9150612524826124e3565b602082019050919050565b600060208201905081810360008301526125488161250c565b9050919050565b600061255a82611d4e565b915061256583611d4e565b925082820390508181111561257d5761257c611d58565b5b92915050565b7f54696d6520646964206e6f7420656e6400000000000000000000000000000000600082015250565b60006125b9601083611cd1565b91506125c482612583565b602082019050919050565b600060208201905081810360008301526125e8816125ac565b9050919050565b7f5468652063617264732068617665206265656e20616c7265616479206472617760008201527f6e00000000000000000000000000000000000000000000000000000000000000602082015250565b600061264b602183611cd1565b9150612656826125ef565b604082019050919050565b6000602082019050818103600083015261267a8161263e565b9050919050565b600061268c82611d4e565b91507fffffffffffffffffffffffffffffffffffffffffffffffffffffffffffffffff82036126be576126bd611d58565b5b600182019050919050565b6000819050919050565b6126e46126df82611d4e565b6126c9565b82525050565b60008160601b9050919050565b6000612702826126ea565b9050919050565b6000612714826126f7565b9050919050565b61272c61272782611f83565b612709565b82525050565b600061273e82866126d3565b60208201915061274e828561271b565b60148201915061275e82846126d3565b602082019150819050949350505050565b7f4e487b7100000000000000000000000000000000000000000000000000000000600052601260045260246000fd5b60006127a982611d4e565b91506127b483611d4e565b9250826127c4576127c361276f565b5b82820690509291505056fea264697066735822122011d6e58f360f78a7568b24de9af4ee5c9ae06ff2db94f2e690791fbbc842598c64736f6c63430008180033",
  "linkReferences": {},
  "deployedLinkReferences": {}
}